{
  "contractName": "ElectionHelper",
  "abi": [
    {
      "inputs": [],
      "stateMutability": "nonpayable",
      "type": "constructor"
    },
    {
      "anonymous": false,
      "inputs": [
        {
          "indexed": false,
          "internalType": "uint256",
          "name": "id",
          "type": "uint256"
        }
      ],
      "name": "NewElection",
      "type": "event"
    },
    {
      "anonymous": false,
      "inputs": [
        {
          "indexed": true,
          "internalType": "address",
          "name": "previousOwner",
          "type": "address"
        },
        {
          "indexed": true,
          "internalType": "address",
          "name": "newOwner",
          "type": "address"
        }
      ],
      "name": "OwnershipTransferred",
      "type": "event"
    },
    {
      "inputs": [
        {
          "internalType": "uint256",
          "name": "id",
          "type": "uint256"
        }
      ],
      "name": "_closeElection",
      "outputs": [],
      "stateMutability": "nonpayable",
      "type": "function"
    },
    {
      "inputs": [
        {
          "internalType": "string",
          "name": "_title",
          "type": "string"
        },
        {
          "internalType": "string[]",
          "name": "_candidatesNames",
          "type": "string[]"
        }
      ],
      "name": "_createElection",
      "outputs": [],
      "stateMutability": "nonpayable",
      "type": "function"
    },
    {
      "inputs": [],
      "name": "owner",
      "outputs": [
        {
          "internalType": "address",
          "name": "",
          "type": "address"
        }
      ],
      "stateMutability": "view",
      "type": "function"
    },
    {
      "inputs": [
        {
          "internalType": "uint256",
          "name": "id",
          "type": "uint256"
        }
      ],
      "name": "seeElection",
      "outputs": [],
      "stateMutability": "view",
      "type": "function"
    },
    {
      "inputs": [
        {
          "internalType": "address",
          "name": "newOwner",
          "type": "address"
        }
      ],
      "name": "transferOwnership",
      "outputs": [],
      "stateMutability": "nonpayable",
      "type": "function"
    },
    {
      "inputs": [
        {
          "internalType": "uint256",
          "name": "_electionId",
          "type": "uint256"
        },
        {
          "internalType": "string",
          "name": "_newTitle",
          "type": "string"
        }
      ],
      "name": "changeTitle",
      "outputs": [],
      "stateMutability": "nonpayable",
      "type": "function"
    },
    {
      "inputs": [
        {
          "internalType": "uint256",
          "name": "_electionId",
          "type": "uint256"
        },
        {
          "internalType": "uint256",
          "name": "_candidateId",
          "type": "uint256"
        },
        {
          "internalType": "string",
          "name": "_newName",
          "type": "string"
        }
      ],
      "name": "changeCandidateName",
      "outputs": [],
      "stateMutability": "nonpayable",
      "type": "function"
    }
  ],
  "bytecode": "0x60806040526213c680600060146101000a81548163ffffffff021916908363ffffffff16021790555034801561003457600080fd5b50336000806101000a81548173ffffffffffffffffffffffffffffffffffffffff021916908373ffffffffffffffffffffffffffffffffffffffff160217905550610b18806100846000396000f3fe608060405234801561001057600080fd5b506004361061007d5760003560e01c80638da5cb5b1161005b5780638da5cb5b146100d65780638e79233d146100f4578063f2f93f7414610110578063f2fde38b1461012c5761007d565b80634f41d6dc1461008257806354cd73761461009e5780638ac85869146100ba575b600080fd5b61009c600480360381019061009791906108c2565b610148565b005b6100b860048036038101906100b39190610937565b610386565b005b6100d460048036038101906100cf9190610960565b610422565b005b6100de6104b7565b6040516100eb9190610a42565b60405180910390f35b61010e600480360381019061010991906109b8565b6104db565b005b61012a60048036038101906101259190610937565b61058d565b005b61014660048036038101906101419190610899565b610590565b005b3360011515600560008373ffffffffffffffffffffffffffffffffffffffff1673ffffffffffffffffffffffffffffffffffffffff16815260200190815260200160002060000160149054906101000a900460ff161515146101a957600080fd5b60008383905090506101b96106df565b6040518060c0016040528088888080601f016020809104026020016040519081016040528093929190818152602001838380828437600081840152601f19601f8201169050808301925050505050505081526020018367ffffffffffffffff8111801561022557600080fd5b5060405190808252806020026020018201604052801561025f57816020015b61024c61071d565b8152602001906001900390816102445790505b50815260200160008152602001600115158152602001428152602001600060149054906101000a900463ffffffff1663ffffffff168152509050600060018080549050039050336003600083815260200190815260200160002060006101000a81548173ffffffffffffffffffffffffffffffffffffffff021916908373ffffffffffffffffffffffffffffffffffffffff1602179055506001600460003373ffffffffffffffffffffffffffffffffffffffff1673ffffffffffffffffffffffffffffffffffffffff168152602001908152602001600020600082825401925050819055507f7b1e5a99cfb3a21a53448619825447934102f54788cc32f6d17de36564e30a70816040516103749190610a5d565b60405180910390a15050505050505050565b3360011515600560008373ffffffffffffffffffffffffffffffffffffffff1673ffffffffffffffffffffffffffffffffffffffff16815260200190815260200160002060000160149054906101000a900460ff161515146103e757600080fd5b6000600183815481106103f657fe5b906000526020600020906006020160030160006101000a81548160ff0219169083151502179055505050565b3360011515600560008373ffffffffffffffffffffffffffffffffffffffff1673ffffffffffffffffffffffffffffffffffffffff16815260200190815260200160002060000160149054906101000a900460ff1615151461048357600080fd5b82826001868154811061049257fe5b906000526020600020906006020160000191906104b092919061073e565b5050505050565b60008054906101000a900473ffffffffffffffffffffffffffffffffffffffff1681565b3360011515600560008373ffffffffffffffffffffffffffffffffffffffff1673ffffffffffffffffffffffffffffffffffffffff16815260200190815260200160002060000160149054906101000a900460ff1615151461053c57600080fd5b82826001878154811061054b57fe5b9060005260206000209060060201600101868154811061056757fe5b9060005260206000209060030201600101919061058592919061073e565b505050505050565b50565b60008054906101000a900473ffffffffffffffffffffffffffffffffffffffff1673ffffffffffffffffffffffffffffffffffffffff163373ffffffffffffffffffffffffffffffffffffffff16146105e857600080fd5b600073ffffffffffffffffffffffffffffffffffffffff168173ffffffffffffffffffffffffffffffffffffffff16141561062257600080fd5b8073ffffffffffffffffffffffffffffffffffffffff1660008054906101000a900473ffffffffffffffffffffffffffffffffffffffff1673ffffffffffffffffffffffffffffffffffffffff167f8be0079c531659141344cd1fd0a4f28419497f9722a3daafe3b4186f6b6457e060405160405180910390a3806000806101000a81548173ffffffffffffffffffffffffffffffffffffffff021916908373ffffffffffffffffffffffffffffffffffffffff16021790555050565b6040518060c0016040528060608152602001606081526020016000815260200160001515815260200160008152602001600063ffffffff1681525090565b60405180606001604052806000815260200160608152602001606081525090565b828054600181600116156101000203166002900490600052602060002090601f016020900481019282601f1061077f57803560ff19168380011785556107ad565b828001600101855582156107ad579182015b828111156107ac578235825591602001919060010190610791565b5b5090506107ba91906107be565b5090565b5b808211156107d75760008160009055506001016107bf565b5090565b6000813590506107ea81610ab4565b92915050565b60008083601f84011261080257600080fd5b8235905067ffffffffffffffff81111561081b57600080fd5b60208301915083602082028301111561083357600080fd5b9250929050565b60008083601f84011261084c57600080fd5b8235905067ffffffffffffffff81111561086557600080fd5b60208301915083600182028301111561087d57600080fd5b9250929050565b60008135905061089381610acb565b92915050565b6000602082840312156108ab57600080fd5b60006108b9848285016107db565b91505092915050565b600080600080604085870312156108d857600080fd5b600085013567ffffffffffffffff8111156108f257600080fd5b6108fe8782880161083a565b9450945050602085013567ffffffffffffffff81111561091d57600080fd5b610929878288016107f0565b925092505092959194509250565b60006020828403121561094957600080fd5b600061095784828501610884565b91505092915050565b60008060006040848603121561097557600080fd5b600061098386828701610884565b935050602084013567ffffffffffffffff8111156109a057600080fd5b6109ac8682870161083a565b92509250509250925092565b600080600080606085870312156109ce57600080fd5b60006109dc87828801610884565b94505060206109ed87828801610884565b935050604085013567ffffffffffffffff811115610a0a57600080fd5b610a168782880161083a565b925092505092959194509250565b610a2d81610a78565b82525050565b610a3c81610aaa565b82525050565b6000602082019050610a576000830184610a24565b92915050565b6000602082019050610a726000830184610a33565b92915050565b6000610a8382610a8a565b9050919050565b600073ffffffffffffffffffffffffffffffffffffffff82169050919050565b6000819050919050565b610abd81610a78565b8114610ac857600080fd5b50565b610ad481610aaa565b8114610adf57600080fd5b5056fea2646970667358221220c2058d18e1ccb7f71dd154711d4688bffd3b51817ffc3dc47ac1ce4fe185888c64736f6c63430007000033",
  "immutableReferences": {},
  "source": "pragma solidity ^0.7.0;\r\npragma experimental ABIEncoderV2;\r\n\r\nimport \"./ElectionFactory.sol\";\r\n\r\ncontract ElectionHelper is ElectionFactory {\r\n    constructor() {}\r\n\r\n    function changeTitle(uint _electionId, string calldata _newTitle) external isAdmin(msg.sender) {\r\n        elections[_electionId].title = _newTitle;\r\n    }\r\n\r\n    function changeCandidateName(uint _electionId, uint _candidateId, string calldata _newName) external isAdmin(msg.sender) {\r\n        elections[_electionId].candidates[_candidateId].name = _newName;\r\n    }\r\n}\r\n",
  "sourcePath": "C:/Users/acham/Applications/ESGI/Blockchain/Projet/Voting-SmartContract-Truffled/contracts/ElectionHelper.sol",
  "compiler": {
    "name": "solc",
    "version": "0.7.0+commit.9e61f92b.Emscripten.clang"
  },
  "schemaVersion": "3.3.2",
  "updatedAt": "2020-12-09T11:49:57.558Z",
  "devdoc": {
    "kind": "dev",
    "methods": {
      "transferOwnership(address)": {
        "details": "Allows the current owner to transfer control of the contract to a newOwner.",
        "params": {
          "newOwner": "The address to transfer ownership to."
        }
      }
    },
    "version": 1
  },
  "userdoc": {
    "kind": "user",
    "methods": {},
    "version": 1
  }
}