{
  "contractName": "ElectionFactory",
  "abi": [
    {
      "inputs": [],
      "stateMutability": "nonpayable",
      "type": "constructor"
    },
    {
      "anonymous": false,
      "inputs": [
        {
          "indexed": false,
          "internalType": "uint256",
          "name": "id",
          "type": "uint256"
        }
      ],
      "name": "NewElection",
      "type": "event"
    },
    {
      "anonymous": false,
      "inputs": [
        {
          "indexed": true,
          "internalType": "address",
          "name": "previousOwner",
          "type": "address"
        },
        {
          "indexed": true,
          "internalType": "address",
          "name": "newOwner",
          "type": "address"
        }
      ],
      "name": "OwnershipTransferred",
      "type": "event"
    },
    {
      "inputs": [],
      "name": "owner",
      "outputs": [
        {
          "internalType": "address",
          "name": "",
          "type": "address"
        }
      ],
      "stateMutability": "view",
      "type": "function"
    },
    {
      "inputs": [
        {
          "internalType": "address",
          "name": "newOwner",
          "type": "address"
        }
      ],
      "name": "transferOwnership",
      "outputs": [],
      "stateMutability": "nonpayable",
      "type": "function"
    },
    {
      "inputs": [
        {
          "internalType": "string",
          "name": "_title",
          "type": "string"
        },
        {
          "internalType": "string[]",
          "name": "_candidatesNames",
          "type": "string[]"
        }
      ],
      "name": "_createElection",
      "outputs": [],
      "stateMutability": "nonpayable",
      "type": "function"
    },
    {
      "inputs": [
        {
          "internalType": "uint256",
          "name": "id",
          "type": "uint256"
        }
      ],
      "name": "_closeElection",
      "outputs": [],
      "stateMutability": "nonpayable",
      "type": "function"
    },
    {
      "inputs": [
        {
          "internalType": "uint256",
          "name": "id",
          "type": "uint256"
        }
      ],
      "name": "seeElection",
      "outputs": [],
      "stateMutability": "view",
      "type": "function"
    }
  ],
  "bytecode": "0x60806040526213c680600060146101000a81548163ffffffff021916908363ffffffff16021790555034801561003457600080fd5b50336000806101000a81548173ffffffffffffffffffffffffffffffffffffffff021916908373ffffffffffffffffffffffffffffffffffffffff160217905550610812806100846000396000f3fe608060405234801561001057600080fd5b50600436106100575760003560e01c80634f41d6dc1461005c57806354cd7376146100785780638da5cb5b14610094578063f2f93f74146100b2578063f2fde38b146100ce575b600080fd5b61007660048036038101906100719190610680565b6100ea565b005b610092600480360381019061008d91906106f5565b610328565b005b61009c6103c4565b6040516100a9919061073c565b60405180910390f35b6100cc60048036038101906100c791906106f5565b6103e8565b005b6100e860048036038101906100e39190610657565b6103eb565b005b3360011515600560008373ffffffffffffffffffffffffffffffffffffffff1673ffffffffffffffffffffffffffffffffffffffff16815260200190815260200160002060000160149054906101000a900460ff1615151461014b57600080fd5b600083839050905061015b61053a565b6040518060c0016040528088888080601f016020809104026020016040519081016040528093929190818152602001838380828437600081840152601f19601f8201169050808301925050505050505081526020018367ffffffffffffffff811180156101c757600080fd5b5060405190808252806020026020018201604052801561020157816020015b6101ee610578565b8152602001906001900390816101e65790505b50815260200160008152602001600115158152602001428152602001600060149054906101000a900463ffffffff1663ffffffff168152509050600060018080549050039050336003600083815260200190815260200160002060006101000a81548173ffffffffffffffffffffffffffffffffffffffff021916908373ffffffffffffffffffffffffffffffffffffffff1602179055506001600460003373ffffffffffffffffffffffffffffffffffffffff1673ffffffffffffffffffffffffffffffffffffffff168152602001908152602001600020600082825401925050819055507f7b1e5a99cfb3a21a53448619825447934102f54788cc32f6d17de36564e30a70816040516103169190610757565b60405180910390a15050505050505050565b3360011515600560008373ffffffffffffffffffffffffffffffffffffffff1673ffffffffffffffffffffffffffffffffffffffff16815260200190815260200160002060000160149054906101000a900460ff1615151461038957600080fd5b60006001838154811061039857fe5b906000526020600020906006020160030160006101000a81548160ff0219169083151502179055505050565b60008054906101000a900473ffffffffffffffffffffffffffffffffffffffff1681565b50565b60008054906101000a900473ffffffffffffffffffffffffffffffffffffffff1673ffffffffffffffffffffffffffffffffffffffff163373ffffffffffffffffffffffffffffffffffffffff161461044357600080fd5b600073ffffffffffffffffffffffffffffffffffffffff168173ffffffffffffffffffffffffffffffffffffffff16141561047d57600080fd5b8073ffffffffffffffffffffffffffffffffffffffff1660008054906101000a900473ffffffffffffffffffffffffffffffffffffffff1673ffffffffffffffffffffffffffffffffffffffff167f8be0079c531659141344cd1fd0a4f28419497f9722a3daafe3b4186f6b6457e060405160405180910390a3806000806101000a81548173ffffffffffffffffffffffffffffffffffffffff021916908373ffffffffffffffffffffffffffffffffffffffff16021790555050565b6040518060c0016040528060608152602001606081526020016000815260200160001515815260200160008152602001600063ffffffff1681525090565b60405180606001604052806000815260200160608152602001606081525090565b6000813590506105a8816107ae565b92915050565b60008083601f8401126105c057600080fd5b8235905067ffffffffffffffff8111156105d957600080fd5b6020830191508360208202830111156105f157600080fd5b9250929050565b60008083601f84011261060a57600080fd5b8235905067ffffffffffffffff81111561062357600080fd5b60208301915083600182028301111561063b57600080fd5b9250929050565b600081359050610651816107c5565b92915050565b60006020828403121561066957600080fd5b600061067784828501610599565b91505092915050565b6000806000806040858703121561069657600080fd5b600085013567ffffffffffffffff8111156106b057600080fd5b6106bc878288016105f8565b9450945050602085013567ffffffffffffffff8111156106db57600080fd5b6106e7878288016105ae565b925092505092959194509250565b60006020828403121561070757600080fd5b600061071584828501610642565b91505092915050565b61072781610772565b82525050565b610736816107a4565b82525050565b6000602082019050610751600083018461071e565b92915050565b600060208201905061076c600083018461072d565b92915050565b600061077d82610784565b9050919050565b600073ffffffffffffffffffffffffffffffffffffffff82169050919050565b6000819050919050565b6107b781610772565b81146107c257600080fd5b50565b6107ce816107a4565b81146107d957600080fd5b5056fea2646970667358221220c0ec717b70a402eed4e0bd308abd3b1b20b423f4d8de79d085d32686dfbfafb964736f6c63430007000033",
  "immutableReferences": {},
  "source": "pragma solidity ^0.7.0;\r\npragma experimental ABIEncoderV2;\r\n\r\nimport \"./ownable.sol\";\r\n\r\ncontract ElectionFactory is Ownable {\r\n    constructor (){}\r\n    uint32 expiration = 15 days;\r\n\r\n    event NewElection(uint id);\r\n\r\n    struct Election {\r\n        string title;\r\n        //mapping (uint => Candidate) candidates;\r\n        Candidate[] candidates;\r\n        uint totalVoters;\r\n        bool isOpen;\r\n        uint256 creationDate;\r\n        uint32 expiresAfter;\r\n    }\r\n\r\n    struct Candidate {\r\n        //address id;\r\n        uint id; // TODO : Utiliser l'index du tableau candidats[] ?\r\n        string name;\r\n        uint[] notes; // notes from 0 to 6\r\n    }\r\n\r\n    struct User {\r\n        address userAddress;\r\n        bool isAdmin;\r\n    }\r\n\r\n    Election[]  elections;\r\n    User[] users;\r\n\r\n    mapping (uint => address) electionToOwner;\r\n    mapping (address => uint) ownerElectionCount;\r\n    mapping (address => User) listUser;\r\n\r\n    modifier isAdmin(address userAddress){\r\n        require (listUser[userAddress].isAdmin == true);\r\n        _;\r\n    }\r\n\r\n    function _addAdmin(address userAddress) private isAdmin(msg.sender) {\r\n        listUser[userAddress].isAdmin = true;\r\n    }\r\n\r\n    function _deleteAdmin(address userAddress) private isAdmin(msg.sender) {\r\n        listUser[userAddress].isAdmin = false;\r\n    }\r\n\r\n    // TODO : function addUser\r\n\r\n    function _createElection(string calldata _title, string[] calldata _candidatesNames) external isAdmin(msg.sender)  {\r\n        uint nbCandidates = _candidatesNames.length;\r\n\r\n        Election memory newElection = Election(_title, new Candidate[](nbCandidates), 0, true, block.timestamp, expiration);\r\n        /*elections.push(newElection);*/\r\n        uint electionId = elections.length - 1;\r\n        /*Candidate[] storage candidates;*/\r\n\r\n        /*for (uint i = 0; i < nbCandidates; i ++) {\r\n            elections[electionId].candidates[i] = Candidate({id: i, name: _candidatesNames[i], notes: new uint[](0)});\r\n        }*/\r\n\r\n        electionToOwner[electionId] = msg.sender;\r\n        ownerElectionCount[msg.sender] += 1;\r\n        emit NewElection(electionId);\r\n    }\r\n\r\n\r\n    function _closeElection(uint id) external isAdmin(msg.sender) /* isOpen(id)*/ {\r\n        elections[id].isOpen = false;\r\n    }\r\n\r\n    function seeElection(uint id) external view {\r\n\r\n    }\r\n}\r\n",
  "sourcePath": "C:\\Users\\acham\\Applications\\ESGI\\Blockchain\\Projet\\Voting-SmartContract-Truffled\\contracts\\ElectionFactory.sol",
  "compiler": {
    "name": "solc",
    "version": "0.7.0+commit.9e61f92b.Emscripten.clang"
  },
  "schemaVersion": "3.3.2",
  "updatedAt": "2020-12-09T11:49:57.545Z",
  "devdoc": {
    "kind": "dev",
    "methods": {
      "transferOwnership(address)": {
        "details": "Allows the current owner to transfer control of the contract to a newOwner.",
        "params": {
          "newOwner": "The address to transfer ownership to."
        }
      }
    },
    "version": 1
  },
  "userdoc": {
    "kind": "user",
    "methods": {},
    "version": 1
  }
}