{
  "contractName": "VoteFactory",
  "abi": [
    {
      "anonymous": false,
      "inputs": [
        {
          "indexed": false,
          "internalType": "uint256",
          "name": "id",
          "type": "uint256"
        }
      ],
      "name": "NewElection",
      "type": "event"
    },
    {
      "anonymous": false,
      "inputs": [
        {
          "indexed": true,
          "internalType": "address",
          "name": "previousOwner",
          "type": "address"
        },
        {
          "indexed": true,
          "internalType": "address",
          "name": "newOwner",
          "type": "address"
        }
      ],
      "name": "OwnershipTransferred",
      "type": "event"
    },
    {
      "inputs": [
        {
          "internalType": "uint256",
          "name": "id",
          "type": "uint256"
        }
      ],
      "name": "_closeElection",
      "outputs": [],
      "stateMutability": "nonpayable",
      "type": "function"
    },
    {
      "inputs": [
        {
          "internalType": "string",
          "name": "_title",
          "type": "string"
        },
        {
          "internalType": "string[]",
          "name": "_candidatesNames",
          "type": "string[]"
        }
      ],
      "name": "_createElection",
      "outputs": [],
      "stateMutability": "nonpayable",
      "type": "function"
    },
    {
      "inputs": [],
      "name": "election",
      "outputs": [
        {
          "internalType": "string",
          "name": "title",
          "type": "string"
        },
        {
          "internalType": "uint256",
          "name": "totalVoters",
          "type": "uint256"
        },
        {
          "internalType": "bool",
          "name": "isOpen",
          "type": "bool"
        },
        {
          "internalType": "uint256",
          "name": "creationDate",
          "type": "uint256"
        },
        {
          "internalType": "uint32",
          "name": "expiresAfter",
          "type": "uint32"
        }
      ],
      "stateMutability": "view",
      "type": "function"
    },
    {
      "inputs": [],
      "name": "owner",
      "outputs": [
        {
          "internalType": "address",
          "name": "",
          "type": "address"
        }
      ],
      "stateMutability": "view",
      "type": "function"
    },
    {
      "inputs": [
        {
          "internalType": "uint256",
          "name": "id",
          "type": "uint256"
        }
      ],
      "name": "seeElection",
      "outputs": [],
      "stateMutability": "view",
      "type": "function"
    },
    {
      "inputs": [
        {
          "internalType": "address",
          "name": "newOwner",
          "type": "address"
        }
      ],
      "name": "transferOwnership",
      "outputs": [],
      "stateMutability": "nonpayable",
      "type": "function"
    }
  ],
  "bytecode": "0x60806040526213c680600060146101000a81548163ffffffff021916908363ffffffff16021790555034801561003457600080fd5b50336000806101000a81548173ffffffffffffffffffffffffffffffffffffffff021916908373ffffffffffffffffffffffffffffffffffffffff160217905550610a45806100846000396000f3fe608060405234801561001057600080fd5b50600436106100625760003560e01c80634b1d3ede146100675780634f41d6dc1461008957806354cd7376146100a55780638da5cb5b146100c1578063f2f93f74146100df578063f2fde38b146100fb575b600080fd5b61006f610117565b6040516100809594939291906108b4565b60405180910390f35b6100a3600480360381019061009e9190610786565b6101f0565b005b6100bf60048036038101906100ba91906107fb565b61042e565b005b6100c96104ca565b6040516100d69190610899565b60405180910390f35b6100f960048036038101906100f491906107fb565b6104ee565b005b6101156004803603810190610110919061075d565b6104f1565b005b6006806000018054600181600116156101000203166002900480601f0160208091040260200160405190810160405280929190818152602001828054600181600116156101000203166002900480156101b15780601f10610186576101008083540402835291602001916101b1565b820191906000526020600020905b81548152906001019060200180831161019457829003601f168201915b5050505050908060020154908060030160009054906101000a900460ff16908060040154908060050160009054906101000a900463ffffffff16905085565b3360011515600560008373ffffffffffffffffffffffffffffffffffffffff1673ffffffffffffffffffffffffffffffffffffffff16815260200190815260200160002060000160149054906101000a900460ff1615151461025157600080fd5b6000838390509050610261610640565b6040518060c0016040528088888080601f016020809104026020016040519081016040528093929190818152602001838380828437600081840152601f19601f8201169050808301925050505050505081526020018367ffffffffffffffff811180156102cd57600080fd5b5060405190808252806020026020018201604052801561030757816020015b6102f461067e565b8152602001906001900390816102ec5790505b50815260200160008152602001600115158152602001428152602001600060149054906101000a900463ffffffff1663ffffffff168152509050600060018080549050039050336003600083815260200190815260200160002060006101000a81548173ffffffffffffffffffffffffffffffffffffffff021916908373ffffffffffffffffffffffffffffffffffffffff1602179055506001600460003373ffffffffffffffffffffffffffffffffffffffff1673ffffffffffffffffffffffffffffffffffffffff168152602001908152602001600020600082825401925050819055507f7b1e5a99cfb3a21a53448619825447934102f54788cc32f6d17de36564e30a708160405161041c919061090e565b60405180910390a15050505050505050565b3360011515600560008373ffffffffffffffffffffffffffffffffffffffff1673ffffffffffffffffffffffffffffffffffffffff16815260200190815260200160002060000160149054906101000a900460ff1615151461048f57600080fd5b60006001838154811061049e57fe5b906000526020600020906006020160030160006101000a81548160ff0219169083151502179055505050565b60008054906101000a900473ffffffffffffffffffffffffffffffffffffffff1681565b50565b60008054906101000a900473ffffffffffffffffffffffffffffffffffffffff1673ffffffffffffffffffffffffffffffffffffffff163373ffffffffffffffffffffffffffffffffffffffff161461054957600080fd5b600073ffffffffffffffffffffffffffffffffffffffff168173ffffffffffffffffffffffffffffffffffffffff16141561058357600080fd5b8073ffffffffffffffffffffffffffffffffffffffff1660008054906101000a900473ffffffffffffffffffffffffffffffffffffffff1673ffffffffffffffffffffffffffffffffffffffff167f8be0079c531659141344cd1fd0a4f28419497f9722a3daafe3b4186f6b6457e060405160405180910390a3806000806101000a81548173ffffffffffffffffffffffffffffffffffffffff021916908373ffffffffffffffffffffffffffffffffffffffff16021790555050565b6040518060c0016040528060608152602001606081526020016000815260200160001515815260200160008152602001600063ffffffff1681525090565b60405180606001604052806000815260200160608152602001606081525090565b6000813590506106ae816109e1565b92915050565b60008083601f8401126106c657600080fd5b8235905067ffffffffffffffff8111156106df57600080fd5b6020830191508360208202830111156106f757600080fd5b9250929050565b60008083601f84011261071057600080fd5b8235905067ffffffffffffffff81111561072957600080fd5b60208301915083600182028301111561074157600080fd5b9250929050565b600081359050610757816109f8565b92915050565b60006020828403121561076f57600080fd5b600061077d8482850161069f565b91505092915050565b6000806000806040858703121561079c57600080fd5b600085013567ffffffffffffffff8111156107b657600080fd5b6107c2878288016106fe565b9450945050602085013567ffffffffffffffff8111156107e157600080fd5b6107ed878288016106b4565b925092505092959194509250565b60006020828403121561080d57600080fd5b600061081b84828501610748565b91505092915050565b61082d81610945565b82525050565b61083c81610957565b82525050565b600061084d82610929565b6108578185610934565b935061086781856020860161099d565b610870816109d0565b840191505092915050565b61088481610983565b82525050565b6108938161098d565b82525050565b60006020820190506108ae6000830184610824565b92915050565b600060a08201905081810360008301526108ce8188610842565b90506108dd602083018761087b565b6108ea6040830186610833565b6108f7606083018561087b565b610904608083018461088a565b9695505050505050565b6000602082019050610923600083018461087b565b92915050565b600081519050919050565b600082825260208201905092915050565b600061095082610963565b9050919050565b60008115159050919050565b600073ffffffffffffffffffffffffffffffffffffffff82169050919050565b6000819050919050565b600063ffffffff82169050919050565b60005b838110156109bb5780820151818401526020810190506109a0565b838111156109ca576000848401525b50505050565b6000601f19601f8301169050919050565b6109ea81610945565b81146109f557600080fd5b50565b610a0181610983565b8114610a0c57600080fd5b5056fea2646970667358221220a403893cdc53286f45637ae00114017b8d732ffe1fa2d3619af1647a3a8efdd664736f6c63430007000033",
  "immutableReferences": {},
  "source": "pragma solidity ^0.7.0;\r\npragma experimental ABIEncoderV2;\r\n\r\nimport './ElectionFactory.sol';\r\n\r\ncontract VoteFactory is ElectionFactory {\r\n\r\n    Election public election;\r\n\r\n    mapping (uint => address) voteToOwner;\r\n    mapping (uint => uint) voteToElection;\r\n\r\n    struct Vote {\r\n        address id;\r\n    }\r\n\r\n}",
  "sourcePath": "C:/Users/acham/Applications/ESGI/Blockchain/Projet/Voting-SmartContract-Truffled/contracts/VoteFactory.sol",
  "compiler": {
    "name": "solc",
    "version": "0.7.0+commit.9e61f92b.Emscripten.clang"
  },
  "schemaVersion": "3.3.2",
  "updatedAt": "2020-12-09T11:49:57.563Z",
  "devdoc": {
    "kind": "dev",
    "methods": {
      "transferOwnership(address)": {
        "details": "Allows the current owner to transfer control of the contract to a newOwner.",
        "params": {
          "newOwner": "The address to transfer ownership to."
        }
      }
    },
    "version": 1
  },
  "userdoc": {
    "kind": "user",
    "methods": {},
    "version": 1
  }
}